:020000040000FA
:020000000A2EC6
:040008008031242EF1
:02000E007E086A
:1000100023009A009E1C0A280800230095180D282A
:100020007E0891007F08930095131515210020107C
:100030008B1B20148B13553023009600AA3096009A
:1000400095141511210020188B17201C8B13080004
:100050002300951828287908910095131514130882
:10006000FA000800FF01FD01FE01FE190800FD3540
:10007000FA0DFF0D7B087F02031C4028FF007D1452
:10008000FE0A3528B501B601B701B801BA01BB01B6
:10009000BC01BD01B901B91A0800BA35BB0DBC0DD0
:1000A000BD0DA40DA50DA60DA70DB50DB60DB70D73
:1000B000B80D2B083802031D67282A083702031DD4
:1000C000672829083602031D672828083502031C03
:1000D00078282808B5022908031C290FB6022A0827
:1000E000031C2A0FB7022B08031C2B0FB8023A146B
:1000F000B90A4B281E307E027F0803188128031995
:100100008328FF1F87281E30FE00FF0195287F08E7
:10011000013C031D8D287E082C3C03189528FF1BED
:1001200095282C30FE000130FF007E082000CA0018
:100130007F08CB00D0302100AC001230AD0013306E
:10014000AE00AF01B4012C08A4002D08A5002E08B4
:10015000A6002F08A70020004A082100A8002000C0
:100160004B082100A900AA012000CB1FB9282100BB
:10017000AA032100AB012000CB1FC0282100AB0344
:100180002000CB1FD0282100A809A909AA09AB0982
:10019000A80A0319A90A0319AA0A0319AB0AB40A7F
:1001A000210042203A08B0003B08B1003C08B200F0
:1001B0003D08B300341CE728B009B109B209B309FE
:1001C000B00A0319B10A0319B20A0319B30A3008B5
:1001D000AC003108AD003208AE003308AF002C0887
:1001E000FF3CB000FF30B1002D08031C2D0FB10201
:1001F00030082000C800210031082000C900080094
:100200000A30FE0020004F08FF000D200930FE00DC
:10021000A530FF000D20080023009D1C11291D1290
:100220001D1620004E084D060319080000308500F9
:10023000203084004E0884070008F900CE0A1430EC
:100240004E02031C25291430CE02F8307905F83A05
:10025000031D2D294F1C0C292F29CF1C0C295008B8
:10026000023A031D4D29CF1D4D297908FA000A30A5
:10027000FB0032207F08FC00003085003A3084000B
:100280007908FA000630FB0032207F0884077C08DA
:1002900080007908FE0007200C290E158C147908BF
:1002A000FE00072020000E118C100C290A30F900E6
:1002B00028207A082000CF000930F90028207A0889
:1002C000A53A031908000E302000CF0008002000D6
:1002D0009114911221009110911623001F129F1565
:1002E0009F101F101E139E161E129E111E111E100F
:1002F0009D171D139D161D169C011E309B000800A6
:10030000A501A601A201A301A401241A0800A23597
:10031000A30DFE0DFF0DA50DA60D21082602031D40
:10032000932920082502031C9C292008A5022108E6
:10033000031CA603A6022214A40A85292000D201C8
:10034000D301D401D501D601D701D801D901DA01F1
:10035000DB01DC01DD01DE01DF01E001E101E201A1
:10036000E301E401E501E601E701E801E901EA0151
:10037000EB01EC01ED01EE01EF01F001F101F20101
:10038000F301F401F501F6013230B4001430B50088
:100390000A30B6000530B7000230B8000130B900AD
:1003A0003408F700F801BF010030BE01BD00BC00F9
:1003B000BB00BA007A302100990030308C00383010
:1003C0008E0023008C018E0120008C018E0167219C
:1003D0007830FE00FF017A209601970198131813D8
:1003E000981618161814210011149512951115114C
:1003F000951415148B160B118B170B172000D001B9
:1004000056210C215008033A031D872AF10A031DC7
:100410000A2AF20A0319F30A0319F40A00307105D3
:10042000FA000F307205FB0000307305FC0000304D
:100430007405FD00F901F90A7A08003C031DF90171
:100440007B08013C031DF9017C08003C031DF901F8
:100450007D08003C031DF901F9080319352AF60847
:10046000031D352A3230BA003D2A4F1C3A2A053086
:10047000FE003B2AFE017E08BA00F9080319462A4D
:100480007603031D462A3230BB004E2ACF1C4B2A6E
:100490000530FE004C2AFE017E08BB00F908031956
:1004A000582A7608023A031D582A3230BC00602AC6
:1004B0004F1D5D2A0530FE005E2AFE017E08BC004D
:1004C000F90803196A2A7608033A031D6A2A3230AA
:1004D000BD00722ACF1D6F2A0530FE00702AFE0172
:1004E0007E08BD00F90803197C2A7608043A031D2A
:1004F0007C2A3230BE00842A4F1E812A0530FE003D
:10050000822AFE017E08BE007708BF00C62B500875
:10051000023A031DCD2A43086002031D992A4208AE
:100520005F02031D992A41085E02031D992A4008B3
:100530005D020318C62BF901063079020318B42AAC
:10054000003085003A308400790884078008031958
:10055000B22A003085003A3084007908FA007A081F
:1005600084078003F90A9C2A1E30F9004008F90725
:100570000030FA004108FA3D0030FB004208FB3D24
:100580000030FC004308FC3D7908DD007A08DE00FD
:100590007B08DF007C08E000C62BCC080319C62BC3
:1005A000CC01D30A5308173C031CD301D20803190A
:1005B000DC2AF830FE000720F5080319392B323009
:1005C0002000BA007508013C0318E92A7708BB002F
:1005D000EA2ABB017508023C0318F12A7708BC001F
:1005E000F22ABC017508033C0318F92A7708BD00FC
:1005F000FA2ABD017508043C0318012B7708BE00D8
:10060000022BBE017508053C0318092B7708BF00B3
:100610000A2BBF0165084002F9004108FA004208B0
:10062000FB004308FC006608031C660FFA0267081B
:10063000031C670FFB026808031C680FFC027C08A0
:10064000003C031D2D2B7B08003C031D2D2B7A083D
:10065000033C031D2D2B7908E83C0318C62BE5014C
:10066000E601E701E801E901EA01EB01EC01F5012E
:10067000C62B2000D20803198F2B4F1E4F2B770853
:10068000BA00BB01BC01BD01BE015303031D4B2BCE
:100690007708F9004C2BF9017908BF00C62B530CE1
:1006A000F900F90C3F30F905F908031D5A2B7708BA
:1006B000FA005B2BFA017A08BA007903031D632B59
:1006C0007708FA00642BFA017A08BB007908023A2D
:1006D000031D6D2B7708FA006E2BFA017A08BC0017
:1006E0007908033A031D772B7708FA00782BFA0173
:1006F0007A08BD007908043A031D812B7708FA00B7
:10070000822BFA017A08BE007908053A031D8B2B6B
:100710007708FA008C2BFA017A08BF00C62B4F1E0F
:10072000A02BBA01BB01BC01BD01BE01D308031956
:100730009B2BF9019D2B7708F9007908BF00C62B88
:10074000D3080319A52BF901A72B7708F90079081D
:10075000BA00D3080319AE2BF901B02B7708F900C2
:100760007908BB00BC01BD01D3080319B92BF901FD
:10077000BB2B7708F9007908BE00D3080319C22BF8
:10078000F901C42B7708F9007908BF00F9013A088C
:100790007802031CF90A79180E14791C0E10F9015D
:1007A0003B087802031CF90A79188E14791C8E1004
:1007B000F9013C087802031CF90A79180E15791C16
:1007C0000E11F9013D087802031CF90A79188C14FE
:1007D000791C8C10F9013E087802031CF90A79187B
:1007E0000C14791C0C10F9013F087802031CF90A5B
:1007F00079180C15791C0C11F80A7808323C031C86
:10080000F80164084302031D0F2C63084202031D14
:100810000F2C62084102031D0F2C61084002031CCB
:10082000012A8E19162C0130F900172CF9010C1A27
:100830001C2C0430FA001D2CFA017A08F9048C1AD9
:10084000242C0230FB00252CFB017B08F904540802
:100850007906FC007908D400FD01FC08031D7B2CFF
:10086000F9080319C92C43085802031D412C4208FA
:100870005702031D412C41085602031D412C40081C
:1008800055020318C92C43085C02031D512C420871
:100890005B02031D512C41085A02031D512C4008D4
:1008A00059020318C92C80307904F9007908FD0039
:1008B0005030FE004008FE070030FF004108FF3DB9
:1008C00000302100A000200042082100A03D00309F
:1008D000A100200043082100A13D7E082000D9008E
:1008E0007F08DA00210020082000DB002100210819
:1008F0002000DC00C92C79087C05FD00FD080319E7
:10090000A72CF430FE004008FE070130FF0041082C
:10091000FF3D00302100A000200042082100A03D42
:100920000030A100200043082100A13D7E082000E6
:10093000D5007F08D600210020082000D700210024
:1009400021082000D800D901DA01DB01DC01643084
:10095000FE004008FE070030FF004108FF3D003068
:100960002100A000200042082100A03D0030A1008D
:10097000200043082100A13D7E082000E1007F08FF
:10098000E200210020082000E300210021082000CF
:10099000E400FD080319012A7908073A0319E92C34
:1009A000023A0319ED2C063A0319F02C053A031903
:1009B000F32C073A0319FB2C053A03191C2D803A36
:1009C0000319DB2D863A0319E72D803A0319FE2D12
:1009D000012AF6010330D000012A0130D000012A9B
:1009E0000230D000012AD008031D012A7830FE0011
:1009F000FF017A20012A50030319012DD008031D9D
:100A0000152DFE01D2080319FE0A7E08D2004F1DE3
:100A1000012AD2080319112DD301FA30FE00072054
:100A2000012AFC30FE000720012A5008033A031D6A
:100A3000012AD001D201012A5008033A031D482D92
:100A40007608053A031D3B2D5108FE00FF01FE0A02
:100A50000319FF0A06302100A000A101802125080A
:100A60002000D10000308500343084005108840714
:100A70000008F700462D0130FE007608FF39031903
:100A8000442DFE35FF3E3E2D7E08CF060021012A73
:100A90005008023A031D4E2DD001012A5003031DB8
:100AA000DB2DF508031D5F2D0130F5004008E9003E
:100AB0004108EA004208EB004308EC00D22D063062
:100AC00075020318D22D43086C02031D712D4208D4
:100AD0006B02031D712D41086A02031D712D400830
:100AE00069020318D22D690840022100A0002000ED
:100AF00041082100A100200042082100A20020009E
:100B000043082100A30020006A0803188A2D6A0FF9
:100B10008A2D8C2D2100A10220006B080318932D33
:100B20006B0F932D952D2100A20220006C08031855
:100B30009C2D6C0F9C2D9E2D2100A30221002008CE
:100B4000A4002108A5002208A6002308A700750814
:100B5000A800A901AA01AB0142203A08FE003B0807
:100B6000FF003C08AC003D08AD007E08A0007F08F7
:100B7000A1002C08A2002D08A3006030A400EA30D8
:100B8000A500A601A7012008A8002108A9002208A5
:100B9000AA002308AB0042203A08FE003B08FF00F1
:100BA0007A20F50A4008E5004108E6004208E7001F
:100BB0004308E800012AD008031D012A01304A0237
:100BC000FE004B08FF00031CFF037A20012A500897
:100BD000033A031DF92D7608FE00FF01FE0A0319F2
:100BE000FF0A06302100A000A10180212508F6009F
:100BF000012A5003031DFE2DD001012AD008031D38
:100C0000012A4A08FE004B08FF00FE0A0319FF0AEA
:100C10007A20012A2000CC01C801C901C001C1010C
:100C2000C201C301CD01CE010E30CF00D001D101F0
:100C3000CA01CB01D530C400C430C500BB30C600EA
:100C4000DC30C70080319E290B1D312E053020007D
:100C50009500C00A0319C10A0319C20A0319C30A7D
:100C60000B112000111C3B2E4808960049089700E4
:100C70000130CC001110911E090023001908210039
:100C8000BE0020004D0A2100BF0014303F02031CAB
:100C90004B2E1430BF0220004E0821003F060319DE
:100CA0000900200000308500203084004D088407B2
:0E0CB00021003E0880003F082000CD00090012
:020000040001F9
:02000E00A4FF4D
:02001000FFDE11
:00000001FF
