:020000040000FA
:02000000062BCD
:0400080080310F2B09
:02000E00600888
:1000100023009A009E1C0A28080001305B05DC00C2
:10002000DD01DC080319DD0ADE01DD080319DE0A43
:100030005E180E145E1C0E1002305B05DC00DD0144
:10004000DC080319DD0ADE01DD080319DE0A5E188B
:100050008E145E1C8E1004305B05DC00DD01DC08B4
:100060000319DD0ADE01DD080319DE0A5E180E152C
:100070005E1C0E1108305B05DC00DD01DC08031995
:10008000DD0ADE01DD080319DE0A5E188C145E1C31
:100090008C1010305B05DC00DD01DC080319DD0A83
:1000A000DE01DD080319DE0A5E180C145E1C0C105C
:1000B00020305B05DC00DD01DC080319DD0ADE0110
:1000C000DD080319DE0A5E180C155E1C0C11080011
:1000D00023009D1C6D281D121D16200039083806AE
:1000E0000319080000308500203084003908840797
:1000F0000008DB00B90A14303902031C81281430CF
:10010000B9020E158C145B08E000072020000E11C8
:100110008C106828200091149112210091109116E2
:1001200023001F129F159F101F101E139E161E12D4
:100130009E111E111E109D171D139D161D169C014C
:100140000F309B000800E201E301DF01E001E10163
:10015000611A0800DF35E00DDB0DDC0DE20DE30D6B
:100160005E086302031DB6285D086202031CBF28F7
:100170005D08E2025E08031CE303E3025F14E10A88
:10018000A828E501E601E801E901E701671A08008E
:10019000E835E90DD70DD80DE50DE60D5A086602D4
:1001A000031DD42859086502031CDD285908E502FF
:1001B0005A08031CE603E6026814E70AC6287230F0
:1001C0002100990030308C0038308E0023008C01E3
:1001D0008E0120008C018E018A208B170B172000C6
:1001E00096019701981618169810181421001114EA
:1001F000063020009600FF309700BA01BB01BC0119
:10020000BD01BE01BF01C001C1017830C200C30100
:10021000C401C501C601C701C801C901CA01CB019A
:10022000CC01CD01CE01CF01D001D101D201DB0142
:10023000C430D7000930D8004208D9004308DA009A
:10024000C31F2829D909DA09D90A0319DA0ADB0AEE
:10025000C1206808D3006908D400D501D6015B1C11
:100260003C29D309D409D509D609D30A0319D40ADC
:100270000319D50A0319D60A682037083D02031D61
:100280004B2936083C02031D4B2935083B02031D50
:100290004B2934083A020318902953083407DB002D
:1002A0005408DC003508DC3D5508DD003608DD3D2E
:1002B0005608DE003708DE3D5B08BA005C08BB006C
:1002C0005D08BC005E08BD004508DB00DC01DB0A00
:1002D0000319DC0A1830DD00DE01A3206208C50026
:1002E000C40803198729F830E00007202000450CD6
:1002F000DC00DC0C3F30DC050130DB005C08FF3942
:1003000003198529DB35FF3E7F290D209029C5087B
:10031000031D8E293330DB000D209029DB010D20D9
:1003200052083702031D9E2951083602031D9E29DB
:1003300050083502031D9E294F083402031C3C2936
:100340008E19A5290130DB00A629DB010C1AAB2987
:100350000430DC00AC29DC015C08DB048C1AB32916
:100360000230DD00B429DD015D08DB0446085B06D0
:10037000DE005B08C600DF01DE08031D002ADB0883
:1003800003193A2A37084A02031DD02936084902C0
:10039000031DD02935084802031DD029340847021F
:1003A00003183A2A37084E02031DE02936084D0289
:1003B000031DE02935084C02031DE02934084B02D7
:1003C00003183A2A80305B04DB005B08DF001E3034
:1003D000E0003408E0070030E1003508E13D00307E
:1003E000E2003608E23D0030E3003708E33D6008F4
:1003F000CB006108CC006208CD006308CE003A2A29
:100400005B085E05DF00DF0803193A2AF430E000DC
:100410003408E0070130E1003508E13D0030E2003A
:100420003608E23D0030E3003708E33D6008C700CE
:100430006108C8006208C9006308CA003230E000E1
:100440003408E0070030E1003508E13D0030E2000B
:100450003608E23D0030E3003708E33D6008CF0096
:100460006108D0006208D1006308D200CB01CC0142
:10047000CD01CE01DF0803193C295B08013A0319BD
:10048000512A053A0319622A803A0319622A863AE8
:1004900003199B2A803A03199B2A843A0319D52A07
:1004A0003C29E001C4080319E00A6008C400C4083C
:1004B00003195E2AFA30E00007203C29FC30E000F6
:1004C00007203C2942081E3C43080318031DC31B98
:1004D0003C29C2080319C303C203E401C430D70096
:1004E0000930D8004208D9004308DA00C31F7E2A29
:1004F000D909DA09D90A0319DA0AE40AC120680815
:10050000E0006908E100E201E301641C922AE009CD
:10051000E109E209E309E00A0319E10A0319E20A21
:100520000319E30A6008D3006108D4006208D5000B
:100530006308D6003C29FA30420243080318A22A75
:100540000319A42AC31F3C29C20A0319C30AE401E0
:10055000C430D7000930D8004208D9004308DA0077
:10056000C31FB82AD909DA09D90A0319DA0AE40A31
:10057000C1206808E0006908E100E201E301641CB1
:10058000CC2AE009E109E209E309E00A0319E10ADA
:100590000319E20A0319E30A6008D3006108D400D2
:1005A0006208D5006308D6003C297830C200C30138
:1005B000E401C430D7000930D8004208D90043080C
:1005C000DA00C31FE92AD909DA09D90A0319DA0AB4
:1005D000E40AC1206808E0006908E100E201E301E3
:1005E000641CFD2AE009E109E209E309E00A0319B4
:1005F000E10A0319E20A0319E30A6008D30061085B
:10060000D4006208D5006308D6003C292000B4015C
:10061000B501B601B701B801B9018031DF2820006A
:10062000111C1E2B06309600FF309700B40A0319E8
:10063000B50A0319B60A0319B70A1110911E090069
:10064000230019082000EA00380AEB0014306B027E
:10065000031C2C2B1430EB0239086B06031909001C
:100660000030850020308400380884076A08800044
:060670006B08B800090050
:020000040001F9
:02000E00A4FF4D
:02001000FFDE11
:00000001FF
