:020000040000FA
:020000004F2E81
:040008008031612EB4
:02000E007A086E
:1000100023009A009E1C0A280800230095180D282A
:100020007A0891007B089300951315157C108B1BA3
:100030007C148B1355309600AA3096009514151138
:100040007C188B177C1C8B1308002300951825281F
:1000500077089100951315141308F8000800FF01A4
:10006000FC01FD0108307D05FE00FE08031D0800AF
:10007000FC35F90DFF0D7A087F02031C4128FF00B3
:100080007C14FD0A3228B101B201B301B401B701F9
:10009000B801B901BA01B50120303505B600B6087E
:1000A000031D0800B735B80DB90DBA0DA00DA10D8F
:1000B000A20DA30DB10DB20DB30DB40D270834027E
:1000C000031D6C2826083302031D6C282508320204
:1000D000031D6C2824083102031C7D282408B1026A
:1000E0002508031C250FB2022608031C260FB302A5
:1000F0002708031C270FB4023714B50A4C281E30FA
:100100007E027F080318862803198828FF1F8C2881
:100110001E30FE00FF019A287F08013C031D922833
:100120007E082C3C03189A28FF1B9A282C30FE00CE
:100130000130FF007E082000C6007F08C700D030D5
:100140002100A8001230A9001330AA00AB01B001B1
:100150002808A0002908A1002A08A2002B08A30053
:10016000200046082100A400200047082100A50027
:10017000A6012000C71FBE282100A6032100A70159
:100180002000C71FC5282100A7032000C71FD528AE
:100190002100A409A509A609A709A40A0319A50A0B
:1001A0000319A60A0319A70AB00A21004320370839
:1001B000AC003808AD003908AE003A08AF00301C7A
:1001C000EC28AC09AD09AE09AF09AC0A0319AD0AB8
:1001D0000319AE0A0319AF0A2C08A8002D08A900BC
:1001E0002E08AA002F08AB002808FF3CAC00FF3007
:1001F000AD002908031C290FAD022C082000C40003
:1002000021002D082000C50008000A30FA00200057
:100210004B08FB000D200930FA00A530FB000D2033
:10022000080023009D1C16291D121D1620004A08D7
:1002300049060319080000308500203084004A0870
:1002400084070008F700CA0A14304A02031C2A294E
:100250001430CA02F8307705F8007808F83A031D20
:10026000382901304B05F900F908031911293E29F5
:1002700002304B05F900F908031911294C08023A1C
:10028000031D5C29CB1D5C297708F9000A30FA00B0
:100290002F207F08FB00003085003A30840077086B
:1002A000F9000630FA002F207F0884077B088000C1
:1002B0007708FA00072011290E158C147708FA0028
:1002C000072020000E118C1011290A30F70025207C
:1002D00078082000CB000930F70025207808A53ADF
:1002E000031908000E302000CB00080020009114F4
:1002F000911221009110911623001F129F159F103B
:100300001F101E139E161E129E111E111E109D17E9
:100310001D139D161D169C011E309B000800210018
:10032000A201A301FE01FF01A00110302005A100E0
:10033000A108031D0800FE35FF0DFA0DFB0DA20DEF
:10034000A30D7D082302031DA7297C082202031C9C
:10035000B0297C08A2027D08031CA303A3027E141B
:10036000A00A95292000CE01CF01D001D101D201F0
:10037000D301D401D501D601D701D801D901DA01C1
:10038000DB01DC01DD01DE01DF01E001E101E20171
:10039000E301E401E501E601E701E801E901EA0121
:1003A000EB01EC01ED01EE01EF01F001F101F201D1
:1003B000F301F4013230B4001430B5000A30B60055
:1003C0000530B7000230B8000130B9003408F5003C
:1003D000F601BF010030BE01BD00BC00BB00BA0089
:1003E0007A302100990030308C0038308E002300A4
:1003F0008C018E0120008C018E0176217830FE0068
:10040000FF017F209601970198131813981618166C
:100410001814210011149512951115119514151425
:100420008B160B118B170B172000CC0165211121A6
:100430004C08033A031D9D2AED0A031D202AEE0AEB
:100440000319EF0A0319F00A00306D05F8000F30A8
:100450006E05F90000306F05FA0000307005FB00F2
:10046000F701F70A7808003C031DF7017908013C01
:10047000031DF7017A08003C031DF7017B08003CCF
:10048000031DF701F70803194B2AF208031D4B2A35
:100490003230BA00532A4B1C502A0530F800512A3A
:1004A000F8017808BA00F70803195C2A7203031DE3
:1004B0005C2A3230BB00642ACB1C612A0530F8006C
:1004C000622AF8017808BB00F70803196E2A72083F
:1004D000023A031D6E2A3230BC00762A4B1D732A65
:1004E0000530F800742AF8017808BC00F7080319F1
:1004F000802A7208033A031D802A3230BD00882A00
:10050000CB1D852A0530F800862AF8017808BD0041
:10051000F7080319922A7208043A031D922A32300E
:10052000BE009A2A4B1E972A0530F800982AF80137
:100530007808BE007508BF00E52B4C08023A031D81
:10054000E32A43085C02031DAF2A42085B02031D35
:10055000AF2A41085A02031DAF2A40085902031866
:10056000E52BF701063077020318CA2A0030850010
:100570003A3084007708840780080319C82A0030BD
:1005800085003A3084007708F800780884078003F3
:10059000F70AB22A1E30F7004008F7070030F800CB
:1005A0004108F83D0030F9004208F93D0030FA00FA
:1005B0004308FA3D7708D9007808DA007908DB00AB
:1005C0007A08DC00E52BC8080319E52BC801CF0A1F
:1005D0004F08173C0318F52AF4080319F32AFA30D8
:1005E000FA000720F4012000CF01CE080319FB2AEE
:1005F000F830FA000720F1080319582B3230200098
:10060000BA007108013C0318082B7508BB00092BC0
:10061000BB017108023C0318102B7508BC00112B9C
:10062000BC017108033C0318182B7508BD00192B79
:10063000BD017108043C0318202B7508BE00212B56
:10064000BE017108053C0318282B7508BF00292B33
:10065000BF0161084002F7004108F8004208F900B4
:100660004308FA006208031C620FF8026308031CC7
:10067000630FF9026408031C640FFA027A08003C55
:10068000031D4C2B7908003C031D4C2B7808033CC0
:10069000031D4C2B7708E83C0318E52BE101E20130
:1006A000E301E401E501E601E701E801F101E52BE1
:1006B0002000CE080319AE2B4B1E6E2B7508BA0016
:1006C000BB01BC01BD01BE014F03031D6A2B7508B0
:1006D000F7006B2BF7017708BF00E52B4F0CF700F5
:1006E000F70C3F30F705F708031D792B7508F80064
:1006F0007A2BF8017808BA007703031D822B75085E
:10070000F800832BF8017808BB007708023A031D34
:100710008C2B7508F8008D2BF8017808BC00770841
:10072000033A031D962B7508F800972BF8017808FB
:10073000BD007708043A031DA02B7508F800A12B13
:10074000F8017808BE007708053A031DAA2B750842
:10075000F800AB2BF8017808BF00E52B4B1EBF2B30
:10076000BA01BB01BC01BD01BE01CF080319BA2B00
:10077000F701BC2B7508F7007708BF00E52BCF0801
:100780000319C42BF701C62B7508F7007708BA00C8
:10079000CF080319CD2BF701CF2B7508F700770889
:1007A000BB00BC01BD01CF080319D82BF701DA2B20
:1007B0007508F7007708BE00CF080319E12BF70191
:1007C000E32B7508F7007708BF00F7013A087602B7
:1007D000031CF70A77180E14771C0E10F7013B085C
:1007E0007602031CF70A77188E14771C8E10F70117
:1007F0003C087602031CF70A77180E15771C0E11B9
:10080000F7013D087602031CF70A77188C14771C51
:100810008C10F7013E087602031CF70A77180C14B7
:10082000771C0C10F7013F087602031CF70A7718B3
:100830000C15771C0C11F60A7608323C031CF601E5
:1008400060084302031D2E2C5F084202031D2E2C5C
:100850005E084102031D2E2C5D084002031C172A6E
:100860008E19352C0130F700362CF7010C1A3B2C71
:100870000430FA003C2CFA017A08F7048C1A432C55
:100880000230FA00442CFA017A08F704500877067F
:10089000F8007708D000F901F808031DB62CF70816
:1008A0000319F02C43085402031D602C4208530224
:1008B000031D602C41085202031D602C40085102A8
:1008C0000318F02C00305504560457045804FF391F
:1008D000031D882C40307704F7007708F90050306A
:1008E000FA004008FA070030FB004108FB3D0030E9
:1008F000FC004208FC3D0030FD004308FD3D7A0845
:10090000D5007B08D6007C08D7007D08D800F02CE5
:1009100043085802031D962C42085702031D962CCB
:1009200041085602031D962C400855020318F02C6E
:1009300080307704F7007708F9005030FA0040085B
:10094000FA070030FB004108FB3D0030FC00420884
:10095000FC3D0030FD004308FD3D7A08D5007B08D2
:10096000D6007C08D7007D08D800F02C77087805E1
:10097000F900F9080319D82CF430FA004008FA07F6
:100980000130FB004108FB3D0030FC004208FC3D0B
:100990000030FD004308FD3D7A08D1007B08D200FD
:1009A0007C08D3007D08D400D501D601D701D80139
:1009B0006430FA004008FA070030FB004108FB3DB4
:1009C0000030FC004208FC3D0030FD004308FD3DC6
:1009D0007A08DD007B08DE007C08DF007D08E0008F
:1009E000F9080319172A7708073A0319192D023A4B
:1009F00003191D2D063A0319202D053A0319232D3D
:100A0000073A03192B2D403A03195D2D453A031976
:100A1000662D403A03190E2EC03A03190E2E863A5F
:100A200003191A2E403A0319432EC03A0319432ED4
:100A3000172AF2010330CC00172A0130CC00172A04
:100A40000230CC00172ACC08031D172A7830FE008C
:100A5000FF017F20172A4C030319312DCC08031DF9
:100A60004B2DF3080319372D0130F400172AFA0132
:100A7000CE080319FA0A7A08CE004B1D172ACE08B1
:100A80000319472DCF01FA30FA000720172AFC304E
:100A9000FA000720172A4C08023A031D562DFA3097
:100AA000FA00072001302000CE00172A4C08033A34
:100AB000031D172ACC01CE01172AF308031D642D4C
:100AC0000130F300CE00172AF301172A4C08033A2D
:100AD000031D912D7208053A031D842D4D08FA005F
:100AE000FB01FA0A0319FB0A0630FC00FD018F2105
:100AF00022082000CD0000308500343084004D08ED
:100B000084070008F5008F2D0130FA007208FF39C4
:100B100003198D2DFA35FF3E872D7A08CB06052166
:100B2000172A4C08023A031D972DCC01172A4C03B3
:100B3000031D0E2EF108031DA82D0130F100400801
:100B4000E5004108E6004208E7004308E800052EFA
:100B5000063071020318052E43086802031DBA2DE2
:100B600042086702031DBA2D41086602031DBA2D13
:100B7000400865020318052E65084002FA00410886
:100B8000FB004208FC004308FD006608031C660FDA
:100B9000FB026708031C670FFC026808031C680F50
:100BA000FD027A082100A0007B08A1007C08A200B9
:100BB0007D08A3007108A400A501A601A701432098
:100BC0003708FE003808FF003908A8003A08A900D5
:100BD0007E08FA007F08FB002808FC002908FD00B9
:100BE0006030A000EA30A100A201A3017A08A400AD
:100BF0007B08A5007C08A6007D08A70043203708D5
:100C0000FE003808FF007F20F10A4008E10041089B
:100C1000E2004208E3004308E400172ACC08031D61
:100C2000172A01304602FE004708FF00031CFF039D
:100C30007F20172A4C08033A031D2B2E7208FA0056
:100C4000FB01FA0A0319FB0A0630FC00FD018F21A3
:100C50002208F200172A4C08023A031D3E2ECE0845
:100C60000319382EFC30FA0007202000CE013E2E5A
:100C7000FB30FA00072001302000CE004C03031D9A
:100C8000432ECC01172ACC08031D172A4608FE0064
:100C90004708FF00FE0A0319FF0A7F20172A2000D9
:100CA000C801C401C501C001C101C201C301C9011C
:100CB000CA010E30CB00CC01CD01C601C701803185
:100CC000B2290B1D6E2E053020009500C00A0319B5
:100CD000C10A0319C20A0319C30A0B112000111C0F
:100CE000802E44082100BB003B08200096004508E8
:100CF0002100BB003B08200097000130C800111004
:100D0000911E0900230019082100BB002000490A98
:100D10002100BC0014303C02031C902E1430BC0295
:100D200020004A0821003C06031909002000003079
:100D30008500203084004908840721003B0880009A
:080D40003C082000C900090075
:020000040001F9
:02000E00A4FF4D
:02001000FFDE11
:00000001FF
