:020000040000FA
:020000008F2E41
:040008008031A12E74
:02000E00F808F0
:10001000031D0B280800F93000000000000000005C
:1000200000000000000000000000000000000000D0
:10003000FF3E031D0C28000000000000000000002F
:1000400000000000000000000000000000000000B0
:10005000F80B0B280800FA30F8000720FA30F800F7
:100060000720FA30F8000720FA30F8000720F70BD5
:100070002B2808007A0823009A009E1C3D280800BF
:100080002300951840287A0891007B089300951367
:1000900015157C108B1B7C148B1355309600AA30E1
:1000A0009600951415117C188B177C1C8B13080077
:1000B00023009518582877089100951315141308F4
:1000C000F8000800FF01FC01FD0108307D05FE007D
:1000D000FE08031D0800FC35F90DFF0D7A087F02AC
:1000E000031C7428FF007C14FD0A6528B101B201CD
:1000F000B301B401B701B801B901BA01B5012030AB
:100100003505B600B608031D0800B735B80DB90DA2
:10011000BA0DA00DA10DA20DA30DB10DB20DB30D21
:10012000B40D27083402031D9F2826083302031D3F
:100130009F2825083202031D9F2824083102031C32
:10014000B0282408B1022508031C250FB202260896
:10015000031C260FB3022708031C270FB402371411
:10016000B50A7F2820000E108E100E118C140C146E
:100170000C110530F7002B2008001E307E027F088E
:100180000318C4280319C628FF1FCA281E30FE0002
:10019000FF01D8287F08013C031DD0287E082C3C95
:1001A0000318D828FF1BD8282C30FE000130FF0090
:1001B0007E082000C6007F08C700D0302100A800BC
:1001C0001230A9001330AA00AB01B0012808A0002A
:1001D0002908A1002A08A2002B08A3002000460835
:1001E0002100A400200047082100A500A60120004E
:1001F000C71FFC282100A6032100A7012000C71F5C
:1002000003292100A7032000C71F13292100A409E7
:10021000A509A609A709A40A0319A50A0319A60A8C
:100220000319A70AB00A210076203708AC00380865
:10023000AD003908AE003A08AF00301C2A29AC09DD
:10024000AD09AE09AF09AC0A0319AD0A0319AE0A2C
:100250000319AF0A2C08A8002D08A9002E08AA002F
:100260002F08AB002808FF3CAC00FF30AD00290888
:10027000031C290FAD022C082000C40021002D080A
:100280002000C50008000A30FA0020004B08FB00DF
:1002900040200930FA00A530FB0040200800230070
:1002A0009D1C54291D121D1620004A0849060319D9
:1002B000080000308500203084004A0884070008C8
:1002C000F700CA0A14304A02031C68291430CA0213
:1002D000F8307705F8007808F83A031D76290130E0
:1002E0004B05F900F90803194F297C2902304B0509
:1002F000F900F90803194F294C08023A031D9A29FD
:10030000CB1D9A297708F9000A30FA0062207F088D
:10031000FB00003085003A3084007708F900063091
:10032000FA0062207F0884077B0880007708FA00C3
:100330003A204F290E158C147708FA003A20200035
:100340000E118C104F290A30F70058207808200031
:10035000CB000930F70058207808A53A03190800A7
:100360000E302000CB0008002000911491122100D3
:100370009110911623001F129F159F101F101E131E
:100380009E161E129E111E111E109D171D139D16E6
:100390001D169C011F309B0008002100A201A30133
:1003A000FE01FF01A00110302005A100A108031DDE
:1003B0000800FE35FF0DFA0DFB0DA20DA30D7D0803
:1003C0002302031DE5297C082202031CEE297C0878
:1003D000A2027D08031CA303A3027E14A00AD32952
:1003E0002000CE01CF01D001D101D201D301D4012F
:1003F000D501D601D701D801D901DA01DB01DC0131
:10040000DD01DE01DF01E001E101E201E301E401E0
:10041000E501E601E701E801E901EA01EB01EC0190
:10042000ED01EE01EF01F001F101F201F301F40140
:100430003230B4001430B5000A30B6000530B700D1
:100440000230B8000130B9003408F500F601BF01F0
:100450000030BE01BD00BC00BB00BA007A302100F4
:10046000990030308C0038308E0023008C018E01D2
:1004700020008C018E018E1DB220B4217830FE0048
:10048000FF01BD20960197019813181398161816AE
:1004900018142100111495129511151195141514A5
:1004A0008B160B118B170B172000CC01A3214F21AA
:1004B0004C08033A031DDD2AED0A031D602AEE0AEB
:1004C0000319EF0A0319F00A00306D05F8000F3028
:1004D0006E05F90000306F05FA0000307005FB0072
:1004E000F701F70A7808003C031DF7017908013C81
:1004F000031DF7017A08003C031DF7017B08003C4F
:10050000031DF701F70803198B2AF208031D8B2A34
:100510003230BA00932A4B1C902A0530F800912AF9
:10052000F8017808BA00F70803199C2A7203031D22
:100530009C2A3230BB00A42ACB1CA12A0530F8002B
:10054000A22AF8017808BB00F7080319AE2A72083E
:10055000023A031DAE2A3230BC00B62A4B1DB32A24
:100560000530F800B42AF8017808BC00F708031930
:10057000C02A7208033A031DC02A3230BD00C82ABF
:10058000CB1DC52A0530F800C62AF8017808BD0041
:10059000F7080319D22A7208043A031DD22A32300E
:1005A000BE00DA2A4B1ED72A0530F800D82AF801F7
:1005B0007808BE007508BF00252C4C08023A031DC0
:1005C000232B43085C02031DEF2A42085B02031D34
:1005D000EF2A41085A02031DEF2A40085902031866
:1005E000252CF7010630770203180A2B003085000E
:1005F0003A3084007708840780080319082B0030FC
:1006000085003A3084007708F80078088407800372
:10061000F70AF22A1E30F7004008F7070030F8000A
:100620004108F83D0030F9004208F93D0030FA0079
:100630004308FA3D7708D9007808DA007908DB002A
:100640007A08DC00252CC8080319252CC801CF0A1C
:100650004F08173C0318352BF4080319332BFA30D5
:10066000FA003A20F4012000CF01CE0803193B2BF9
:10067000F830FA003A20F1080319982B32302000A4
:10068000BA007108013C0318482B7508BB00492BC0
:10069000BB017108023C0318502B7508BC00512B9C
:1006A000BC017108033C0318582B7508BD00592B79
:1006B000BD017108043C0318602B7508BE00612B56
:1006C000BE017108053C0318682B7508BF00692B33
:1006D000BF0161084002F7004108F8004208F90034
:1006E0004308FA006208031C620FF8026308031C47
:1006F000630FF9026408031C640FFA027A08003CD5
:10070000031D8C2B7908003C031D8C2B7808033CBF
:10071000031D8C2B7708E83C0318252CE101E2012E
:10072000E301E401E501E601E701E801F101252C1F
:100730002000CE080319EE2B4B1EAE2B7508BA0015
:10074000BB01BC01BD01BE014F03031DAA2B7508EF
:10075000F700AB2BF7017708BF00252C4F0CF700F3
:10076000F70C3F30F705F708031DB92B7508F800A3
:10077000BA2BF8017808BA007703031DC22B75085D
:10078000F800C32BF8017808BB007708023A031D74
:10079000CC2B7508F800CD2BF8017808BC00770841
:1007A000033A031DD62B7508F800D72BF8017808FB
:1007B000BD007708043A031DE02B7508F800E12B13
:1007C000F8017808BE007708053A031DEA2B750882
:1007D000F800EB2BF8017808BF00252C4B1EFF2BEF
:1007E000BA01BB01BC01BD01BE01CF080319FA2B40
:1007F000F701FC2B7508F7007708BF00252CCF0800
:100800000319042CF701062C7508F7007708BA00C5
:10081000CF0803190D2CF7010F2C7508F700770886
:10082000BB00BC01BD01CF080319182CF7011A2C1D
:100830007508F7007708BE00CF080319212CF701CF
:10084000232C7508F7007708BF00F7013A087602F5
:10085000031CF70A77180E14771C0E10F7013B08DB
:100860007602031CF70A77188E14771C8E10F70196
:100870003C087602031CF70A77180E15771C0E1138
:10088000F7013D087602031CF70A77188C14771CD1
:100890008C10F7013E087602031CF70A77180C1437
:1008A000771C0C10F7013F087602031CF70A771833
:1008B0000C15771C0C11F60A7608323C031CF60165
:1008C00060084302031D6E2C5F084202031D6E2C5C
:1008D0005E084102031D6E2C5D084002031C572A6E
:1008E0008E19752C0130F700762CF7010C1A7B2C31
:1008F0000430FA007C2CFA017A08F7048C1A832C55
:100900000230FA00842CFA017A08F70450087706BE
:10091000F8007708D000F901F808031DF62CF70855
:100920000319302D43085402031DA02C4208530222
:10093000031DA02C41085202031DA02C40085102A7
:100940000318302D00305504560457045804FF395D
:10095000031DC82C40307704F7007708F9005030A9
:10096000FA004008FA070030FB004108FB3D003068
:10097000FC004208FC3D0030FD004308FD3D7A08C4
:10098000D5007B08D6007C08D7007D08D800302D24
:1009900043085802031DD62C42085702031DD62CCB
:1009A00041085602031DD62C400855020318302D6D
:1009B00080307704F7007708F9005030FA004008DB
:1009C000FA070030FB004108FB3D0030FC00420804
:1009D000FC3D0030FD004308FD3D7A08D5007B0852
:1009E000D6007C08D7007D08D800302D7708780520
:1009F000F900F9080319182DF430FA004008FA0735
:100A00000130FB004108FB3D0030FC004208FC3D8A
:100A10000030FD004308FD3D7A08D1007B08D2007C
:100A20007C08D3007D08D400D501D601D701D801B8
:100A30006430FA004008FA070030FB004108FB3D33
:100A40000030FC004208FC3D0030FD004308FD3D45
:100A50007A08DD007B08DE007C08DF007D08E0000E
:100A6000F9080319572A7708073A0319592D023A4A
:100A700003195D2D063A0319602D053A0319632DFC
:100A8000073A03196B2D403A03199D2D453A031976
:100A9000A62D403A03194E2EC03A03194E2E863A1F
:100AA00003195A2E403A0319832EC03A0319832E94
:100AB000572AF2010330CC00572A0130CC00572AC4
:100AC0000230CC00572ACC08031D572A7830FE008C
:100AD000FF01BD20572A4C030319712DCC08031DBB
:100AE0008B2DF3080319772D0130F400572AFA01F2
:100AF000CE080319FA0A7A08CE004B1D572ACE08F1
:100B00000319872DCF01FA30FA003A20572AFC301A
:100B1000FA003A20572A4C08023A031D962DFA3063
:100B2000FA003A2001302000CE00572A4C08033A40
:100B3000031D572ACC01CE01572AF308031DA42D0B
:100B40000130F300CE00572AF301572A4C08033A2C
:100B5000031DD12D7208053A031DC42D4D08FA005E
:100B6000FB01FA0A0319FB0A0630FC00FD01CD2146
:100B700022082000CD0000308500343084004D086C
:100B800084070008F500CF2D0130FA007208FF3904
:100B90000319CD2DFA35FF3EC72D7A08CB06432128
:100BA000572A4C08023A031DD72DCC01572A4C0373
:100BB000031D4E2EF108031DE82D0130F100400801
:100BC000E5004108E6004208E7004308E800452E3A
:100BD000063071020318452E43086802031DFA2DE2
:100BE00042086702031DFA2D41086602031DFA2D13
:100BF000400865020318452E65084002FA004108C6
:100C0000FB004208FC004308FD006608031C660F59
:100C1000FB026708031C670FFC026808031C680FCF
:100C2000FD027A082100A0007B08A1007C08A20038
:100C30007D08A3007108A400A501A601A7017620E4
:100C40003708FE003808FF003908A8003A08A90054
:100C50007E08FA007F08FB002808FC002908FD0038
:100C60006030A000EA30A100A201A3017A08A4002C
:100C70007B08A5007C08A6007D08A7007620370821
:100C8000FE003808FF00BD20F10A4008E1004108DD
:100C9000E2004208E3004308E400572ACC08031DA1
:100CA000572A01304602FE004708FF00031CFF03DD
:100CB000BD20572A4C08033A031D6B2E7208FA0018
:100CC000FB01FA0A0319FB0A0630FC00FD01CD21E5
:100CD0002208F200572A4C08023A031D7E2ECE0845
:100CE0000319782EFC30FA003A202000CE017E2E27
:100CF000FB30FA003A2001302000CE004C03031DE7
:100D0000832ECC01572ACC08031D572A4608FE0023
:100D10004708FF00FE0A0319FF0ABD20572A2000DA
:100D2000C801C401C501C001C101C201C301C9019B
:100D3000CA010E30CB00CC01CD01C601C701803104
:100D4000F0290B1DAE2E053020009500C00A0319B6
:100D5000C10A0319C20A0319C30A0B112000111C8E
:100D6000C02E44082100BB003B0820009600450827
:100D70002100BB003B08200097000130C800111083
:100D8000911E0900230019082100BB002000490A18
:100D90002100BC0014303C02031CD02E1430BC02D5
:100DA00020004A0821003C060319090020000030F9
:100DB0008500203084004908840721003B0880001A
:080DC0003C082000C9000900F5
:020000040001F9
:02000E00A4FF4D
:02001000FFDE11
:00000001FF
